{
  "_format": "hh-sol-artifact-1",
  "contractName": "SongNFT",
  "sourceName": "contracts/SongNFT.sol",
  "abi": [
    {
      "inputs": [
        {
          "internalType": "string",
          "name": "_name",
          "type": "string"
        },
        {
          "internalType": "string",
          "name": "_symbol",
          "type": "string"
        },
        {
          "internalType": "uint256",
          "name": "_nftPrice",
          "type": "uint256"
        },
        {
          "internalType": "string",
          "name": "_audioURI",
          "type": "string"
        },
        {
          "internalType": "address",
          "name": "_artist",
          "type": "address"
        },
        {
          "internalType": "string",
          "name": "_coverURI",
          "type": "string"
        }
      ],
      "stateMutability": "nonpayable",
      "type": "constructor"
    },
    {
      "anonymous": false,
      "inputs": [
        {
          "indexed": true,
          "internalType": "address",
          "name": "owner",
          "type": "address"
        },
        {
          "indexed": true,
          "internalType": "address",
          "name": "approved",
          "type": "address"
        },
        {
          "indexed": true,
          "internalType": "uint256",
          "name": "tokenId",
          "type": "uint256"
        }
      ],
      "name": "Approval",
      "type": "event"
    },
    {
      "anonymous": false,
      "inputs": [
        {
          "indexed": true,
          "internalType": "address",
          "name": "owner",
          "type": "address"
        },
        {
          "indexed": true,
          "internalType": "address",
          "name": "operator",
          "type": "address"
        },
        {
          "indexed": false,
          "internalType": "bool",
          "name": "approved",
          "type": "bool"
        }
      ],
      "name": "ApprovalForAll",
      "type": "event"
    },
    {
      "anonymous": false,
      "inputs": [
        {
          "indexed": false,
          "internalType": "uint256",
          "name": "_fromTokenId",
          "type": "uint256"
        },
        {
          "indexed": false,
          "internalType": "uint256",
          "name": "_toTokenId",
          "type": "uint256"
        }
      ],
      "name": "BatchMetadataUpdate",
      "type": "event"
    },
    {
      "anonymous": false,
      "inputs": [
        {
          "indexed": false,
          "internalType": "uint256",
          "name": "_tokenId",
          "type": "uint256"
        }
      ],
      "name": "MetadataUpdate",
      "type": "event"
    },
    {
      "anonymous": false,
      "inputs": [
        {
          "indexed": true,
          "internalType": "uint256",
          "name": "tokenId",
          "type": "uint256"
        },
        {
          "indexed": true,
          "internalType": "address",
          "name": "buyer",
          "type": "address"
        },
        {
          "indexed": false,
          "internalType": "uint256",
          "name": "price",
          "type": "uint256"
        }
      ],
      "name": "NFTMinted",
      "type": "event"
    },
    {
      "anonymous": false,
      "inputs": [
        {
          "indexed": true,
          "internalType": "address",
          "name": "previousOwner",
          "type": "address"
        },
        {
          "indexed": true,
          "internalType": "address",
          "name": "newOwner",
          "type": "address"
        }
      ],
      "name": "OwnershipTransferred",
      "type": "event"
    },
    {
      "anonymous": false,
      "inputs": [
        {
          "indexed": true,
          "internalType": "uint256",
          "name": "tokenId",
          "type": "uint256"
        },
        {
          "indexed": false,
          "internalType": "uint256",
          "name": "amount",
          "type": "uint256"
        }
      ],
      "name": "RoyaltyCollected",
      "type": "event"
    },
    {
      "anonymous": false,
      "inputs": [
        {
          "indexed": true,
          "internalType": "address",
          "name": "artist",
          "type": "address"
        },
        {
          "indexed": false,
          "internalType": "uint256",
          "name": "amount",
          "type": "uint256"
        }
      ],
      "name": "RoyaltyPaid",
      "type": "event"
    },
    {
      "anonymous": false,
      "inputs": [
        {
          "indexed": true,
          "internalType": "address",
          "name": "from",
          "type": "address"
        },
        {
          "indexed": true,
          "internalType": "address",
          "name": "to",
          "type": "address"
        },
        {
          "indexed": true,
          "internalType": "uint256",
          "name": "tokenId",
          "type": "uint256"
        }
      ],
      "name": "Transfer",
      "type": "event"
    },
    {
      "inputs": [],
      "name": "ROYALTY_PERCENTAGE",
      "outputs": [
        {
          "internalType": "uint256",
          "name": "",
          "type": "uint256"
        }
      ],
      "stateMutability": "view",
      "type": "function"
    },
    {
      "inputs": [
        {
          "internalType": "address",
          "name": "to",
          "type": "address"
        },
        {
          "internalType": "uint256",
          "name": "tokenId",
          "type": "uint256"
        }
      ],
      "name": "approve",
      "outputs": [],
      "stateMutability": "nonpayable",
      "type": "function"
    },
    {
      "inputs": [],
      "name": "artist",
      "outputs": [
        {
          "internalType": "address",
          "name": "",
          "type": "address"
        }
      ],
      "stateMutability": "view",
      "type": "function"
    },
    {
      "inputs": [],
      "name": "audioURI",
      "outputs": [
        {
          "internalType": "string",
          "name": "",
          "type": "string"
        }
      ],
      "stateMutability": "view",
      "type": "function"
    },
    {
      "inputs": [
        {
          "internalType": "address",
          "name": "owner",
          "type": "address"
        }
      ],
      "name": "balanceOf",
      "outputs": [
        {
          "internalType": "uint256",
          "name": "",
          "type": "uint256"
        }
      ],
      "stateMutability": "view",
      "type": "function"
    },
    {
      "inputs": [],
      "name": "coverURI",
      "outputs": [
        {
          "internalType": "string",
          "name": "",
          "type": "string"
        }
      ],
      "stateMutability": "view",
      "type": "function"
    },
    {
      "inputs": [
        {
          "internalType": "uint256",
          "name": "tokenId",
          "type": "uint256"
        }
      ],
      "name": "getApproved",
      "outputs": [
        {
          "internalType": "address",
          "name": "",
          "type": "address"
        }
      ],
      "stateMutability": "view",
      "type": "function"
    },
    {
      "inputs": [
        {
          "internalType": "address",
          "name": "user",
          "type": "address"
        }
      ],
      "name": "getInfo",
      "outputs": [
        {
          "components": [
            {
              "internalType": "uint256",
              "name": "nftPrice",
              "type": "uint256"
            },
            {
              "internalType": "address",
              "name": "artist",
              "type": "address"
            },
            {
              "internalType": "string",
              "name": "audioURI",
              "type": "string"
            },
            {
              "internalType": "string",
              "name": "coverURI",
              "type": "string"
            },
            {
              "internalType": "uint256",
              "name": "royaltyBalance",
              "type": "uint256"
            },
            {
              "internalType": "uint256",
              "name": "currentTokenId",
              "type": "uint256"
            }
          ],
          "internalType": "struct SongNFT.NFTInfo",
          "name": "",
          "type": "tuple"
        }
      ],
      "stateMutability": "view",
      "type": "function"
    },
    {
      "inputs": [
        {
          "internalType": "address",
          "name": "owner",
          "type": "address"
        },
        {
          "internalType": "address",
          "name": "operator",
          "type": "address"
        }
      ],
      "name": "isApprovedForAll",
      "outputs": [
        {
          "internalType": "bool",
          "name": "",
          "type": "bool"
        }
      ],
      "stateMutability": "view",
      "type": "function"
    },
    {
      "inputs": [
        {
          "internalType": "address",
          "name": "_to",
          "type": "address"
        }
      ],
      "name": "mintNFT",
      "outputs": [
        {
          "internalType": "uint256",
          "name": "",
          "type": "uint256"
        }
      ],
      "stateMutability": "payable",
      "type": "function"
    },
    {
      "inputs": [],
      "name": "name",
      "outputs": [
        {
          "internalType": "string",
          "name": "",
          "type": "string"
        }
      ],
      "stateMutability": "view",
      "type": "function"
    },
    {
      "inputs": [],
      "name": "nftPrice",
      "outputs": [
        {
          "internalType": "uint256",
          "name": "",
          "type": "uint256"
        }
      ],
      "stateMutability": "view",
      "type": "function"
    },
    {
      "inputs": [],
      "name": "owner",
      "outputs": [
        {
          "internalType": "address",
          "name": "",
          "type": "address"
        }
      ],
      "stateMutability": "view",
      "type": "function"
    },
    {
      "inputs": [
        {
          "internalType": "uint256",
          "name": "tokenId",
          "type": "uint256"
        }
      ],
      "name": "ownerOf",
      "outputs": [
        {
          "internalType": "address",
          "name": "",
          "type": "address"
        }
      ],
      "stateMutability": "view",
      "type": "function"
    },
    {
      "inputs": [],
      "name": "payRoyalties",
      "outputs": [],
      "stateMutability": "nonpayable",
      "type": "function"
    },
    {
      "inputs": [],
      "name": "renounceOwnership",
      "outputs": [],
      "stateMutability": "nonpayable",
      "type": "function"
    },
    {
      "inputs": [],
      "name": "royaltyBalance",
      "outputs": [
        {
          "internalType": "uint256",
          "name": "",
          "type": "uint256"
        }
      ],
      "stateMutability": "view",
      "type": "function"
    },
    {
      "inputs": [
        {
          "internalType": "address",
          "name": "from",
          "type": "address"
        },
        {
          "internalType": "address",
          "name": "to",
          "type": "address"
        },
        {
          "internalType": "uint256",
          "name": "tokenId",
          "type": "uint256"
        }
      ],
      "name": "safeTransferFrom",
      "outputs": [],
      "stateMutability": "nonpayable",
      "type": "function"
    },
    {
      "inputs": [
        {
          "internalType": "address",
          "name": "from",
          "type": "address"
        },
        {
          "internalType": "address",
          "name": "to",
          "type": "address"
        },
        {
          "internalType": "uint256",
          "name": "tokenId",
          "type": "uint256"
        },
        {
          "internalType": "bytes",
          "name": "data",
          "type": "bytes"
        }
      ],
      "name": "safeTransferFrom",
      "outputs": [],
      "stateMutability": "nonpayable",
      "type": "function"
    },
    {
      "inputs": [
        {
          "internalType": "address",
          "name": "operator",
          "type": "address"
        },
        {
          "internalType": "bool",
          "name": "approved",
          "type": "bool"
        }
      ],
      "name": "setApprovalForAll",
      "outputs": [],
      "stateMutability": "nonpayable",
      "type": "function"
    },
    {
      "inputs": [
        {
          "internalType": "bytes4",
          "name": "interfaceId",
          "type": "bytes4"
        }
      ],
      "name": "supportsInterface",
      "outputs": [
        {
          "internalType": "bool",
          "name": "",
          "type": "bool"
        }
      ],
      "stateMutability": "view",
      "type": "function"
    },
    {
      "inputs": [],
      "name": "symbol",
      "outputs": [
        {
          "internalType": "string",
          "name": "",
          "type": "string"
        }
      ],
      "stateMutability": "view",
      "type": "function"
    },
    {
      "inputs": [
        {
          "internalType": "uint256",
          "name": "tokenId",
          "type": "uint256"
        }
      ],
      "name": "tokenURI",
      "outputs": [
        {
          "internalType": "string",
          "name": "",
          "type": "string"
        }
      ],
      "stateMutability": "view",
      "type": "function"
    },
    {
      "inputs": [
        {
          "internalType": "address",
          "name": "from",
          "type": "address"
        },
        {
          "internalType": "address",
          "name": "to",
          "type": "address"
        },
        {
          "internalType": "uint256",
          "name": "tokenId",
          "type": "uint256"
        }
      ],
      "name": "transferFrom",
      "outputs": [],
      "stateMutability": "nonpayable",
      "type": "function"
    },
    {
      "inputs": [
        {
          "internalType": "address",
          "name": "newOwner",
          "type": "address"
        }
      ],
      "name": "transferOwnership",
      "outputs": [],
      "stateMutability": "nonpayable",
      "type": "function"
    }
  ],
  "bytecode": "0x60a060405234620006ac5762002112803803806200001d81620006b1565b92833981019060c081830312620006ac5780516001600160401b0390818111620006ac57836200004f918401620006d7565b9060209081840151818111620006ac57856200006d918601620006d7565b926040850151936060860151838111620006ac57876200008f918801620006d7565b608097888801519760018060a01b0391828a16809a03620006ac5760a0820151878111620006ac57620000c39201620006d7565b9184519386851162000696576000808c528054956001978888811c981680156200068b575b8b89101462000677578a601f988981116200062d575b50508d8b90898411600114620005c657519350839183620005ba575b5050600019600383901b1c191690881b1790555b805190878211620005a45786548c518882811c9216801562000599575b8b8310146200058357509081878493116200052b575b508c51908a91888411600114620004c457508d5192620004b8575b5050600019600383901b1c191690861b1785555b6007549760018060a01b031998338a8216176007558b51933391167f8be0079c531659141344cd1fd0a4f28419497f9722a3daafe3b4186f6b6457e08580a3600955805191868311620004a25750600b548a518682811c9216801562000497575b8983101462000481575090818584931162000428575b508a51908891868411600114620003bf57508b5192620003b3575b5050600019600383901b1c191690841b17600b555b80519384116200039d57600d5488518482811c9216801562000392575b878310146200037c57508281116200032f575b5087519480928511600114620002c3575083945090839291885194620002b7575b50501b916000199060031b1c191617600d555b600a541617600a55516008556040516119c890816200074a8239f35b01519250388062000288565b600d909552875185812093958591601f198316915b88838310620003145750505010620002fa575b505050811b01600d556200029b565b015160001960f88460031b161c19169055388080620002eb565b858701518855909601959485019487935090810190620002d8565b600d89515288518681208480880160051c82019389891062000372575b0160051c019185905b838110620003665750505062000267565b82815501859062000355565b935081936200034c565b634e487b7160e01b905260226004528851602490fd5b91607f169162000254565b602488634e487b7160e01b815152604160045251fd5b01519050388062000222565b600b90528b51898120889550929190601f198516905b8b828210620004115750508411620003f7575b505050811b01600b5562000237565b015160001960f88460031b161c19169055388080620003e8565b8385015186558a97909501949384019301620003d5565b909150600b8b51528a518881208680860160051c8201938b871062000477575b91899187969594930160051c01925b838110620004685750505062000207565b82815586955089910162000457565b9350819362000448565b634e487b7160e01b905260226004528a51602490fd5b91607f1691620001f1565b634e487b7160e01b905260416004528951602490fd5b0151905038806200017c565b8990528d518b81208a9550929190601f198516905b8d828210620005145750508411620004fa575b505050811b01855562000190565b015160001960f88460031b161c19169055388080620004ec565b8385015186558c97909501949384019301620004d9565b909150878d51528c518a81208880860160051c8201938d871062000579575b918b9187969594930160051c01925b8381106200056a5750505062000161565b8281558695508b910162000559565b935081936200054a565b634e487b7160e01b905260226004528c51602490fd5b91607f16916200014b565b60248c634e487b7160e01b815152604160045251fd5b0151905038806200011a565b508380528b84208a9392909190601f198416868f5b828210620006155750508411620005fb575b505050811b0190556200012e565b015160001960f88460031b161c19169055388080620005ed565b8385015186558e979095019493840193018f620005db565b848052898286209181860160051c83019386106200066d575b0160051c01908a905b8281106200066157508c9150620000fe565b858155018a906200064f565b9250819262000646565b634e487b7160e01b83526022600452602483fd5b97607f1697620000e8565b634e487b7160e01b600052604160045260246000fd5b600080fd5b6040519190601f01601f191682016001600160401b038111838210176200069657604052565b919080601f84011215620006ac5782516001600160401b03811162000696576020906200070d601f8201601f19168301620006b1565b92818452828287010111620006ac5760005b8181106200073557508260009394955001015290565b85810183015184820184015282016200071f56fe6080604081815260048036101561001557600080fd5b600092833560e01c90816301ffc9a7146110285750806306fdde0314610f80578063081812fc14610f60578063095ea7b314610df35780630d39fc8114610dd457806323b872dd14610daf57806342842e0e14610d7b57806343bc161214610d52578063463b08db14610d3657806354ba0f27146108fa57806358039706146108dc5780636352211e146108ab578063698e51761461088c57806370a082311461085f578063715018a6146108025780638da5cb5b146107d957806395d89b41146106f6578063a22cb46514610627578063b88d4fde14610574578063c74d314614610543578063c87b56dd14610435578063e322a56a1461038c578063e985e9c51461033a578063f2fde38b1461026f5763ffdd5cf11461013657600080fd5b3461026b576020928360031936011261026857610184906101556110ee565b9060a085516101638161118e565b828152828882015260608782015260608082015282608082015201526113c9565b1561023357506009549060018060a01b039061022282600a541661020f600c5494600854948051976101b58961118e565b88528888019384526101c56111fe565b918189019283526101d46112bc565b9460608a0195865260808a0198895260a08a0197885282519a8b9a818c5251908b01525116908801525160c0606088015260e08701906110ae565b9051858203601f190160808701526110ae565b915160a08401525160c08301520390f35b82606492519162461bcd60e51b83528201526011602482015270111bdb89dd081bdddb881d1a1948139195607a1b6044820152fd5b80fd5b8280fd5b503461026b57602036600319011261026b576102896110ee565b90610292611371565b6001600160a01b039182169283156102e8575050600754826bffffffffffffffffffffffff60a01b821617600755167f8be0079c531659141344cd1fd0a4f28419497f9722a3daafe3b4186f6b6457e08380a380f35b906020608492519162461bcd60e51b8352820152602660248201527f4f776e61626c653a206e6577206f776e657220697320746865207a65726f206160448201526564647265737360d01b6064820152fd5b50503461038857806003193601126103885760ff8160209361035a6110ee565b610362611109565b6001600160a01b0391821683526005875283832091168252855220549151911615158152f35b5080fd5b503461026b578260031936011261026b57600c549083600c5560018060a01b0390848080808686600a54165af16103c16117a7565b50156103fa57507fbc86de696edc3350c664d50abf25f24e7e1251f1469ad925b25fe36927270d4391602091600a54169351908152a280f35b606490602085519162461bcd60e51b83528201526015602482015274149bde585b1d1e481c185e5bdd5d0819985a5b1959605a1b6044820152fd5b50903461026b576020918260031936011261053f573560008181526002602052604090205461046e906001600160a01b03161515611440565b83526006825280832092815180948290805461048981611154565b918285526001918883821691826000146105185750506001146104da575b5050506104d69392916104bb9103866111dc565b81516104c6816111c0565b52519282849384528301906110ae565b0390f35b8552868520879350859291905b82841061050057505050820101816104bb6104d66104a7565b8054848b0186015289955088949093019281016104e7565b60ff19168782015293151560051b860190930193508492506104bb91506104d690506104a7565b8380fd5b5050346103885781600319360112610388576104d6906105616111fe565b90519182916020835260208301906110ae565b50903461026b57608036600319011261026b5761058f6110ee565b90610598611109565b604435906064359467ffffffffffffffff8611610623573660238701121561062357850135936105d36105ca86611355565b945194856111dc565b8484528636602487890101116102685760208661061b9760246106209a01838901378601015261060b61060684336115c9565b6114f0565b610616838383611691565b6118c8565b6115a5565b80f35b8680fd5b50903461026b578060031936011261026b576106416110ee565b90602435918215158093036106f2576001600160a01b0316923384146106b05750338452600560205280842083855260205280842060ff1981541660ff8416179055519081527f17307eab39ab6107e8899845ad3d59bd9653f200f220920489ca2b5937696c3160203392a380f35b6020606492519162461bcd60e51b8352820152601960248201527f4552433732313a20617070726f766520746f2063616c6c6572000000000000006044820152fd5b8480fd5b50503461038857816003193601126103885780519082600180549161071a83611154565b808652928281169081156107b15750600114610755575b505050610743826104d69403836111dc565b519182916020835260208301906110ae565b94508085527fb10e2d527612073b26eecdfd717e6a320cf44b4afac2b0732d9fcbe2b7fa0cf65b828610610799575050506107438260206104d69582010194610731565b8054602087870181019190915290950194810161077c565b6104d697508693506020925061074394915060ff191682840152151560051b82010194610731565b50503461038857816003193601126103885760075490516001600160a01b039091168152602090f35b833461026857806003193601126102685761081b611371565b600780546001600160a01b0319811690915581906001600160a01b03167f8be0079c531659141344cd1fd0a4f28419497f9722a3daafe3b4186f6b6457e08280a380f35b505034610388576020366003190112610388576020906108856108806110ee565b6113c9565b9051908152f35b505034610388578160031936011261038857602090600c549051908152f35b50913461026857602036600319011261026857506108cb6020923561148c565b90516001600160a01b039091168152f35b5050346103885781600319360112610388576104d6906105616112bc565b509060209283600319360112610268576109126110ee565b906009543410610cfc5760085493600191828601809611610cea5785600855601e3402348104601e1434151715610cd7576064900491600c54838101809111610cc457600c558551610963816111c0565b8281526001600160a01b038616958615610c8357610a21918961061b926109a86109a283600052600260205260018060a01b0360406000205416151590565b15611946565b6000828152600260205260409020546109cb906001600160a01b031615156109a2565b89875260038d528a872080548a01905581875260028d528a872080546001600160a01b0319168b179055818a887fddf252ad1be2c89b69c2b068fc378daa952ba7f163c4a11628f55a4df523b3ef8180a46117d7565b610a296111fe565b6000888152600260205260409020549092906001600160a01b031615610c2957878152600689528681209280519267ffffffffffffffff8411610c165750918391899593610a788c9654611154565b601f8111610bb8575b508591601f8411600114610b365796977f540adfdd9155d5087aa3cfb191e6af8834ca6f410aece54ad16f55c69ff09b439792849283610b2b575b50501b916000199060031b1c19161790555b7ff8e1a15aba9398e019f0b49df1a4fde98ee17ae345cb5f6b5e2c27f5033e8ce7828751868152a18551908152a2827f055e34067993de700e7f718f190fdccc92a27695bb9068504a1a44258577f8eb858451348152a351908152f35b015192503880610abc565b90979291601f19831698858352878320925b8a8110610ba05750837f540adfdd9155d5087aa3cfb191e6af8834ca6f410aece54ad16f55c69ff09b43999a10610b87575b505050811b019055610ace565b015160001960f88460031b161c19169055388080610b7a565b8183015184558d995092850192918801918801610b48565b9184965080949193959750528a8320601f850160051c8101918c8610610c0c575b91888c98969492601f8f9997950160051c01915b828110610bfb575050610a81565b8481558d99508e98508a9101610bed565b9091508190610bd9565b634e487b7160e01b835260419052602482fd5b865162461bcd60e51b81528083018a9052602e60248201527f45524337323155524953746f726167653a2055524920736574206f66206e6f6e60448201526d32bc34b9ba32b73a103a37b5b2b760911b6064820152608490fd5b6064838b808b519262461bcd60e51b845283015260248201527f4552433732313a206d696e7420746f20746865207a65726f20616464726573736044820152fd5b634e487b7160e01b835260118252602483fd5b506011602492634e487b7160e01b835252fd5b6011602492634e487b7160e01b835252fd5b825162461bcd60e51b81528085018690526014602482015273125b9cdd59999a58da595b9d081c185e5b595b9d60621b6044820152606490fd5b50503461038857816003193601126103885760209051601e8152f35b505034610388578160031936011261038857600a5490516001600160a01b039091168152602090f35b5050346103885761061b61062091610d923661111f565b91925192610d9f846111c0565b86845261060b61060684336115c9565b833461026857610620610dc13661111f565b91610dcf61060684336115c9565b611691565b5050346103885781600319360112610388576020906009549051908152f35b503461026b578160031936011261026b57610e0c6110ee565b6024359290916001600160a01b0391908280610e278761148c565b16941693808514610f1357803314908115610ef4575b5015610e8c57848652602052842080546001600160a01b03191683179055610e648361148c565b167f8c5be1e5ebec7d5bd14f71427d1e84f3dd0314c0f7b2291e5b200ac8c7c3b9258480a480f35b6020608492519162461bcd60e51b8352820152603d60248201527f4552433732313a20617070726f76652063616c6c6572206973206e6f7420746f60448201527f6b656e206f776e6572206f7220617070726f76656420666f7220616c6c0000006064820152fd5b90508652600560205281862033875260205260ff828720541638610e3d565b506020608492519162461bcd60e51b8352820152602160248201527f4552433732313a20617070726f76616c20746f2063757272656e74206f776e656044820152603960f91b6064820152fd5b50913461026857602036600319011261026857506108cb602092356114b2565b505034610388578160031936011261038857805190828054610fa181611154565b808552916001918083169081156107b15750600114610fcc57505050610743826104d69403836111dc565b80809650527f290decd9548b62a8d60345a988386fc84ba6bc95484008f6362f93160ef3e5635b828610611010575050506107438260206104d69582010194610731565b80546020878701810191909152909501948101610ff3565b9250503461026b57602036600319011261026b573563ffffffff60e01b811680910361026b5760209250632483248360e11b811490811561106b575b5015158152f35b6380ac58cd60e01b81149150811561109d575b811561108c575b5038611064565b6301ffc9a760e01b14905038611085565b635b5e139f60e01b8114915061107e565b919082519283825260005b8481106110da575050826000602080949584010152601f8019910116010190565b6020818301810151848301820152016110b9565b600435906001600160a01b038216820361110457565b600080fd5b602435906001600160a01b038216820361110457565b6060906003190112611104576001600160a01b0390600435828116810361110457916024359081168103611104579060443590565b90600182811c92168015611184575b602083101461116e57565b634e487b7160e01b600052602260045260246000fd5b91607f1691611163565b60c0810190811067ffffffffffffffff8211176111aa57604052565b634e487b7160e01b600052604160045260246000fd5b6020810190811067ffffffffffffffff8211176111aa57604052565b90601f8019910116810190811067ffffffffffffffff8211176111aa57604052565b60405190600082600b549161121283611154565b8083529260019081811690811561129a575060011461123b575b50611239925003836111dc565b565b600b600090815291507f0175b7a638427703f0dbe7bb9bbf987a2551717b34e79f33b5b1008d1fa01db95b84831061127f575061123993505081016020013861122c565b81935090816020925483858a01015201910190918592611266565b90506020925061123994915060ff191682840152151560051b8201013861122c565b60405190600082600d54916112d083611154565b8083529260019081811690811561129a57506001146112f65750611239925003836111dc565b600d600090815291507fd7b6990105719101dabeb77144f2a3385c8033acd3af97e9423a695e81ad1eb55b84831061133a575061123993505081016020013861122c565b81935090816020925483858a01015201910190918592611321565b67ffffffffffffffff81116111aa57601f01601f191660200190565b6007546001600160a01b0316330361138557565b606460405162461bcd60e51b815260206004820152602060248201527f4f776e61626c653a2063616c6c6572206973206e6f7420746865206f776e65726044820152fd5b6001600160a01b031680156113e957600052600360205260406000205490565b60405162461bcd60e51b815260206004820152602960248201527f4552433732313a2061646472657373207a65726f206973206e6f7420612076616044820152683634b21037bbb732b960b91b6064820152608490fd5b1561144757565b60405162461bcd60e51b815260206004820152601860248201527f4552433732313a20696e76616c696420746f6b656e20494400000000000000006044820152606490fd5b6000908152600260205260409020546001600160a01b03166114af811515611440565b90565b6000818152600260205260409020546114d5906001600160a01b03161515611440565b6000908152600460205260409020546001600160a01b031690565b156114f757565b60405162461bcd60e51b815260206004820152602d60248201527f4552433732313a2063616c6c6572206973206e6f7420746f6b656e206f776e6560448201526c1c881bdc88185c1c1c9bdd9959609a1b6064820152608490fd5b60809060208152603260208201527f4552433732313a207472616e7366657220746f206e6f6e20455243373231526560408201527131b2b4bb32b91034b6b83632b6b2b73a32b960711b60608201520190565b156115ac57565b60405162461bcd60e51b8152806115c560048201611552565b0390fd5b906001600160a01b0380806115dd8461148c565b16931691838314938415611610575b5083156115fa575b50505090565b611606919293506114b2565b16143880806115f4565b909350600052600560205260406000208260005260205260ff6040600020541692386115ec565b1561163e57565b60405162461bcd60e51b815260206004820152602560248201527f4552433732313a207472616e736665722066726f6d20696e636f72726563742060448201526437bbb732b960d91b6064820152608490fd5b906116b99161169f8461148c565b6001600160a01b0393918416928492909183168414611637565b1691821561175657816116d6916116cf8661148c565b1614611637565b7fddf252ad1be2c89b69c2b068fc378daa952ba7f163c4a11628f55a4df523b3ef60008481526004602052604081206bffffffffffffffffffffffff60a01b9081815416905583825260036020526040822060001981540190558482526040822060018154019055858252600260205284604083209182541617905580a4565b60405162461bcd60e51b8152602060048201526024808201527f4552433732313a207472616e7366657220746f20746865207a65726f206164646044820152637265737360e01b6064820152608490fd5b3d156117d2573d906117b882611355565b916117c660405193846111dc565b82523d6000602084013e565b606090565b909190803b156118c0576020604051809281630a85bd0160e11b9687825233600483015281611820600098899384602485015260448401526080606484015260848301906110ae565b03926001600160a01b03165af190829082611878575b505061186a576118446117a7565b805190816118655760405162461bcd60e51b8152806115c560048201611552565b602001fd5b6001600160e01b0319161490565b909192506020813d82116118b8575b81611894602093836111dc565b810103126103885751906001600160e01b0319821682036102685750903880611836565b3d9150611887565b505050600190565b919290803b1561193d57604051630a85bd0160e11b8082523360048301526001600160a01b0394851660248301526044820195909552608060648201529160209183918290819061191d9060848301906110ae565b03916000968791165af19082908261187857505061186a576118446117a7565b50505050600190565b1561194d57565b60405162461bcd60e51b815260206004820152601c60248201527f4552433732313a20746f6b656e20616c7265616479206d696e746564000000006044820152606490fdfea26469706673582212205d092089fb8e11a06fef78e98d0924428e66ada0d28f1c3ef1e09c07c503781f64736f6c63430008140033",
  "linkReferences": {},
  "deployedLinkReferences": {}
}