{
  "_format": "hh-sol-artifact-1",
  "contractName": "GeneralPaymaster",
  "sourceName": "contracts/paymasters/GeneralPaymaster.sol",
  "abi": [
    {
      "anonymous": false,
      "inputs": [
        {
          "indexed": true,
          "internalType": "address",
          "name": "previousOwner",
          "type": "address"
        },
        {
          "indexed": true,
          "internalType": "address",
          "name": "newOwner",
          "type": "address"
        }
      ],
      "name": "OwnershipTransferred",
      "type": "event"
    },
    {
      "inputs": [],
      "name": "owner",
      "outputs": [
        {
          "internalType": "address",
          "name": "",
          "type": "address"
        }
      ],
      "stateMutability": "view",
      "type": "function"
    },
    {
      "inputs": [
        {
          "internalType": "bytes",
          "name": "_context",
          "type": "bytes"
        },
        {
          "components": [
            {
              "internalType": "uint256",
              "name": "txType",
              "type": "uint256"
            },
            {
              "internalType": "uint256",
              "name": "from",
              "type": "uint256"
            },
            {
              "internalType": "uint256",
              "name": "to",
              "type": "uint256"
            },
            {
              "internalType": "uint256",
              "name": "gasLimit",
              "type": "uint256"
            },
            {
              "internalType": "uint256",
              "name": "gasPerPubdataByteLimit",
              "type": "uint256"
            },
            {
              "internalType": "uint256",
              "name": "maxFeePerGas",
              "type": "uint256"
            },
            {
              "internalType": "uint256",
              "name": "maxPriorityFeePerGas",
              "type": "uint256"
            },
            {
              "internalType": "uint256",
              "name": "paymaster",
              "type": "uint256"
            },
            {
              "internalType": "uint256",
              "name": "nonce",
              "type": "uint256"
            },
            {
              "internalType": "uint256",
              "name": "value",
              "type": "uint256"
            },
            {
              "internalType": "uint256[4]",
              "name": "reserved",
              "type": "uint256[4]"
            },
            {
              "internalType": "bytes",
              "name": "data",
              "type": "bytes"
            },
            {
              "internalType": "bytes",
              "name": "signature",
              "type": "bytes"
            },
            {
              "internalType": "bytes32[]",
              "name": "factoryDeps",
              "type": "bytes32[]"
            },
            {
              "internalType": "bytes",
              "name": "paymasterInput",
              "type": "bytes"
            },
            {
              "internalType": "bytes",
              "name": "reservedDynamic",
              "type": "bytes"
            }
          ],
          "internalType": "struct Transaction",
          "name": "_transaction",
          "type": "tuple"
        },
        {
          "internalType": "bytes32",
          "name": "",
          "type": "bytes32"
        },
        {
          "internalType": "bytes32",
          "name": "",
          "type": "bytes32"
        },
        {
          "internalType": "enum ExecutionResult",
          "name": "_txResult",
          "type": "uint8"
        },
        {
          "internalType": "uint256",
          "name": "_maxRefundedGas",
          "type": "uint256"
        }
      ],
      "name": "postTransaction",
      "outputs": [],
      "stateMutability": "payable",
      "type": "function"
    },
    {
      "inputs": [],
      "name": "renounceOwnership",
      "outputs": [],
      "stateMutability": "nonpayable",
      "type": "function"
    },
    {
      "inputs": [
        {
          "internalType": "address",
          "name": "newOwner",
          "type": "address"
        }
      ],
      "name": "transferOwnership",
      "outputs": [],
      "stateMutability": "nonpayable",
      "type": "function"
    },
    {
      "inputs": [
        {
          "internalType": "bytes32",
          "name": "",
          "type": "bytes32"
        },
        {
          "internalType": "bytes32",
          "name": "",
          "type": "bytes32"
        },
        {
          "components": [
            {
              "internalType": "uint256",
              "name": "txType",
              "type": "uint256"
            },
            {
              "internalType": "uint256",
              "name": "from",
              "type": "uint256"
            },
            {
              "internalType": "uint256",
              "name": "to",
              "type": "uint256"
            },
            {
              "internalType": "uint256",
              "name": "gasLimit",
              "type": "uint256"
            },
            {
              "internalType": "uint256",
              "name": "gasPerPubdataByteLimit",
              "type": "uint256"
            },
            {
              "internalType": "uint256",
              "name": "maxFeePerGas",
              "type": "uint256"
            },
            {
              "internalType": "uint256",
              "name": "maxPriorityFeePerGas",
              "type": "uint256"
            },
            {
              "internalType": "uint256",
              "name": "paymaster",
              "type": "uint256"
            },
            {
              "internalType": "uint256",
              "name": "nonce",
              "type": "uint256"
            },
            {
              "internalType": "uint256",
              "name": "value",
              "type": "uint256"
            },
            {
              "internalType": "uint256[4]",
              "name": "reserved",
              "type": "uint256[4]"
            },
            {
              "internalType": "bytes",
              "name": "data",
              "type": "bytes"
            },
            {
              "internalType": "bytes",
              "name": "signature",
              "type": "bytes"
            },
            {
              "internalType": "bytes32[]",
              "name": "factoryDeps",
              "type": "bytes32[]"
            },
            {
              "internalType": "bytes",
              "name": "paymasterInput",
              "type": "bytes"
            },
            {
              "internalType": "bytes",
              "name": "reservedDynamic",
              "type": "bytes"
            }
          ],
          "internalType": "struct Transaction",
          "name": "_transaction",
          "type": "tuple"
        }
      ],
      "name": "validateAndPayForPaymasterTransaction",
      "outputs": [
        {
          "internalType": "bytes4",
          "name": "magic",
          "type": "bytes4"
        },
        {
          "internalType": "bytes",
          "name": "context",
          "type": "bytes"
        }
      ],
      "stateMutability": "payable",
      "type": "function"
    },
    {
      "inputs": [
        {
          "internalType": "address payable",
          "name": "_to",
          "type": "address"
        }
      ],
      "name": "withdraw",
      "outputs": [],
      "stateMutability": "nonpayable",
      "type": "function"
    },
    {
      "stateMutability": "payable",
      "type": "receive"
    }
  ],
  "bytecode": "0x6080806040523461005b5760008054336001600160a01b0319821681178355916001600160a01b03909116907f8be0079c531659141344cd1fd0a4f28419497f9722a3daafe3b4186f6b6457e09080a36106b990816100618239f35b600080fdfe60406080815260048036101561001f575b5050361561001d57600080fd5b005b600091823560e01c8063038a24bc146102d357806351cff8d914610236578063715018a6146101dc578063817b17f0146101665780638da5cb5b1461013a5763f2fde38b1461006e5750610010565b34610136576020366003190112610136576001600160a01b038235818116939192908490036101325761009f61053a565b83156100e057505082546001600160a01b0319811683178455167f8be0079c531659141344cd1fd0a4f28419497f9722a3daafe3b4186f6b6457e08380a380f35b906020608492519162461bcd60e51b8352820152602660248201527f4f776e61626c653a206e6577206f776e657220697320746865207a65726f206160448201526564647265737360d01b6064820152fd5b8480fd5b8280fd5b838234610162578160031936011261016257905490516001600160a01b039091168152602090f35b5080fd5b505060031960c08136011261013657813567ffffffffffffffff928382116101325736602383011215610132578101358381116101325736910160240111610136576024359182116101365761026091360301126101d957600260843510156101d9576101d66180013314610592565b80f35b80fd5b83346101d957806003193601126101d9576101f561053a565b80546001600160a01b03198116825581906001600160a01b03167f8be0079c531659141344cd1fd0a4f28419497f9722a3daafe3b4186f6b6457e08280a380f35b5034610136576020366003190112610136578282356001600160a01b03811690819003610162578180809261026961053a565b47905af1610275610622565b501561027f578280f35b906020608492519162461bcd60e51b8352820152602860248201527f4661696c656420746f2077697468647261772066756e64732066726f6d2070616044820152673cb6b0b9ba32b91760c11b6064820152fd5b506060916003198381360112610132576044359067ffffffffffffffff8211610536576102608284019183360301126105365761800190610315823314610592565b6102248301908461032683836105ea565b9050106104cd5790610337916105ea565b84116104c957356001600160e01b031916638c5a344560e01b0361046f5760a460648301359201359182810292818404149015171561045c578580809381935af1610380610622565b50156103d8575091825192839162e2892f60e21b83526020828185015284518093850152815b8381106103c3575050828201840152601f01601f19168101030190f35b608081015187820187015286945081016103a6565b602060a492519162461bcd60e51b8352820152605360248201527f4661696c656420746f207472616e736665722074782066656520746f2074686560448201527f20426f6f746c6f616465722e205061796d61737465722062616c616e6365206d60648201527234b3b43a103737ba1031329032b737bab3b41760691b6084820152fd5b634e487b7160e01b865260118352602486fd5b835162461bcd60e51b8152602081850152602e60248201527f556e737570706f72746564207061796d617374657220666c6f7720696e20706160448201526d3cb6b0b9ba32b92830b930b6b99760911b6064820152608490fd5b8680fd5b855162461bcd60e51b8152602081870152603a60248201527f546865207374616e64617264207061796d617374657220696e707574206d757360448201527f74206265206174206c656173742034206279746573206c6f6e670000000000006064820152608490fd5b8580fd5b6000546001600160a01b0316330361054e57565b606460405162461bcd60e51b815260206004820152602060248201527f4f776e61626c653a2063616c6c6572206973206e6f7420746865206f776e65726044820152fd5b1561059957565b60405162461bcd60e51b8152602060048201526024808201527f4f6e6c7920626f6f746c6f616465722063616e2063616c6c2074686973206d656044820152631d1a1bd960e21b6064820152608490fd5b903590601e198136030182121561061d570180359067ffffffffffffffff821161061d5760200191813603831361061d57565b600080fd5b3d1561067e5767ffffffffffffffff903d8281116106685760405192601f8201601f19908116603f01168401908111848210176106685760405282523d6000602084013e565b634e487b7160e01b600052604160045260246000fd5b60609056fea2646970667358221220db93a2a3246673a1bb1e47650bc550dadb9ea6086b0c9828b83996fde8b54b7f64736f6c63430008140033",
  "linkReferences": {},
  "deployedLinkReferences": {}
}